{
  "contractName": "Voting",
  "abi": [
    {
      "constant": true,
      "inputs": [
        {
          "internalType": "uint256",
          "name": "",
          "type": "uint256"
        }
      ],
      "name": "all_Votings",
      "outputs": [
        {
          "internalType": "address payable",
          "name": "creator_addr",
          "type": "address"
        },
        {
          "internalType": "string",
          "name": "title",
          "type": "string"
        },
        {
          "internalType": "string",
          "name": "content",
          "type": "string"
        },
        {
          "internalType": "uint256",
          "name": "target_voting",
          "type": "uint256"
        },
        {
          "internalType": "uint256",
          "name": "num_voted",
          "type": "uint256"
        },
        {
          "internalType": "uint256",
          "name": "endtime",
          "type": "uint256"
        },
        {
          "internalType": "bool",
          "name": "isSuccess",
          "type": "bool"
        },
        {
          "internalType": "uint256",
          "name": "voter_num",
          "type": "uint256"
        }
      ],
      "payable": false,
      "stateMutability": "view",
      "type": "function"
    },
    {
      "constant": true,
      "inputs": [],
      "name": "all_votings_num",
      "outputs": [
        {
          "internalType": "uint256",
          "name": "",
          "type": "uint256"
        }
      ],
      "payable": false,
      "stateMutability": "view",
      "type": "function"
    },
    {
      "constant": false,
      "inputs": [
        {
          "internalType": "uint256",
          "name": "_votingId",
          "type": "uint256"
        }
      ],
      "name": "Vote_sender",
      "outputs": [],
      "payable": true,
      "stateMutability": "payable",
      "type": "function"
    },
    {
      "constant": false,
      "inputs": [
        {
          "internalType": "address payable",
          "name": "_initiator",
          "type": "address"
        },
        {
          "internalType": "string",
          "name": "_title",
          "type": "string"
        },
        {
          "internalType": "string",
          "name": "_content",
          "type": "string"
        },
        {
          "internalType": "uint256",
          "name": "_goalMoney",
          "type": "uint256"
        },
        {
          "internalType": "uint256",
          "name": "_endtime",
          "type": "uint256"
        }
      ],
      "name": "Voting_constructor",
      "outputs": [
        {
          "internalType": "uint256",
          "name": "",
          "type": "uint256"
        }
      ],
      "payable": false,
      "stateMutability": "nonpayable",
      "type": "function"
    },
    {
      "constant": true,
      "inputs": [],
      "name": "getBalance",
      "outputs": [
        {
          "internalType": "uint256",
          "name": "",
          "type": "uint256"
        }
      ],
      "payable": false,
      "stateMutability": "view",
      "type": "function"
    },
    {
      "constant": true,
      "inputs": [
        {
          "internalType": "uint256",
          "name": "_votingId",
          "type": "uint256"
        }
      ],
      "name": "MyVotings",
      "outputs": [
        {
          "internalType": "uint256",
          "name": "",
          "type": "uint256"
        }
      ],
      "payable": false,
      "stateMutability": "view",
      "type": "function"
    },
    {
      "constant": true,
      "inputs": [
        {
          "internalType": "uint256",
          "name": "_votingId",
          "type": "uint256"
        }
      ],
      "name": "MyCreatedVotings",
      "outputs": [
        {
          "internalType": "bool",
          "name": "",
          "type": "bool"
        }
      ],
      "payable": false,
      "stateMutability": "view",
      "type": "function"
    }
  ],
  "bytecode": "0x608060405234801561001057600080fd5b50610ae4806100206000396000f3fe6080604052600436106100705760003560e01c806339612ada1161004e57806339612ada14610245578063a8cea98b146103ec578063aafa2c151461043f578063d5864d161461046d57610070565b8063089a0dc614610075578063108e2f88146101ef57806312065fe01461021a575b600080fd5b34801561008157600080fd5b506100ae6004803603602081101561009857600080fd5b81019080803590602001909291905050506104bc565b604051808973ffffffffffffffffffffffffffffffffffffffff1673ffffffffffffffffffffffffffffffffffffffff16815260200180602001806020018881526020018781526020018681526020018515151515815260200184815260200183810383528a818151815260200191508051906020019080838360005b8381101561014657808201518184015260208101905061012b565b50505050905090810190601f1680156101735780820380516001836020036101000a031916815260200191505b50838103825289818151815260200191508051906020019080838360005b838110156101ac578082015181840152602081019050610191565b50505050905090810190601f1680156101d95780820380516001836020036101000a031916815260200191505b509a505050505050505050505060405180910390f35b3480156101fb57600080fd5b50610204610661565b6040518082815260200191505060405180910390f35b34801561022657600080fd5b5061022f610667565b6040518082815260200191505060405180910390f35b34801561025157600080fd5b506103d6600480360360a081101561026857600080fd5b81019080803573ffffffffffffffffffffffffffffffffffffffff169060200190929190803590602001906401000000008111156102a557600080fd5b8201836020820111156102b757600080fd5b803590602001918460018302840111640100000000831117156102d957600080fd5b91908080601f016020809104026020016040519081016040528093929190818152602001838380828437600081840152601f19601f8201169050808301925050505050505091929192908035906020019064010000000081111561033c57600080fd5b82018360208201111561034e57600080fd5b8035906020019184600183028401116401000000008311171561037057600080fd5b91908080601f016020809104026020016040519081016040528093929190818152602001838380828437600081840152601f19601f820116905080830192505050505050509192919290803590602001909291908035906020019092919050505061066f565b6040518082815260200191505060405180910390f35b3480156103f857600080fd5b506104256004803603602081101561040f57600080fd5b810190808035906020019092919050505061073d565b604051808215151515815260200191505060405180910390f35b61046b6004803603602081101561045557600080fd5b81019080803590602001909291905050506107bb565b005b34801561047957600080fd5b506104a66004803603602081101561049057600080fd5b81019080803590602001909291905050506108c5565b6040518082815260200191505060405180910390f35b60016020528060005260406000206000915090508060000160009054906101000a900473ffffffffffffffffffffffffffffffffffffffff1690806001018054600181600116156101000203166002900480601f01602080910402602001604051908101604052809291908181526020018280546001816001161561010002031660029004801561058e5780601f106105635761010080835404028352916020019161058e565b820191906000526020600020905b81548152906001019060200180831161057157829003601f168201915b505050505090806002018054600181600116156101000203166002900480601f01602080910402602001604051908101604052809291908181526020018280546001816001161561010002031660029004801561062c5780601f106106015761010080835404028352916020019161062c565b820191906000526020600020905b81548152906001019060200180831161060f57829003601f168201915b5050505050908060030154908060040154908060050154908060060160009054906101000a900460ff16908060070154905088565b60005481565b600047905090565b6000806000549050600160008082825401925050819055506000600160008381526020019081526020016000209050878160000160006101000a81548173ffffffffffffffffffffffffffffffffffffffff021916908373ffffffffffffffffffffffffffffffffffffffff160217905550868160010190805190602001906106f99291906109da565b50858160020190805190602001906107129291906109da565b5084816003018190555060008160040181905550838160050181905550819250505095945050505050565b600080600190503373ffffffffffffffffffffffffffffffffffffffff166001600085815260200190815260200160002060000160009054906101000a900473ffffffffffffffffffffffffffffffffffffffff1673ffffffffffffffffffffffffffffffffffffffff16146107b257600090505b80915050919050565b600034116107c857600080fd5b60016000828152602001908152602001600020600501544211156107eb57600080fd5b60006001600083815260200190815260200160002090506000600182600701540190506001826007015401826007018190555060008260080160008381526020019081526020016000209050338160000160006101000a81548173ffffffffffffffffffffffffffffffffffffffff021916908373ffffffffffffffffffffffffffffffffffffffff16021790555034816001018190555034836004015401836004018190555082600301548360040154106108bf5760018360060160006101000a81548160ff0219169083151502179055505b50505050565b6000806000905060006001600085815260200190815260200160002090506000600190505b816007015481116109cf576108fd610a5a565b8260080160008381526020019081526020016000206040518060400160405290816000820160009054906101000a900473ffffffffffffffffffffffffffffffffffffffff1673ffffffffffffffffffffffffffffffffffffffff1673ffffffffffffffffffffffffffffffffffffffff16815260200160018201548152505090503373ffffffffffffffffffffffffffffffffffffffff16816000015173ffffffffffffffffffffffffffffffffffffffff1614156109c1578060200151840193505b5080806001019150506108ea565b508192505050919050565b828054600181600116156101000203166002900490600052602060002090601f016020900481019282601f10610a1b57805160ff1916838001178555610a49565b82800160010185558215610a49579182015b82811115610a48578251825591602001919060010190610a2d565b5b509050610a569190610a8a565b5090565b6040518060400160405280600073ffffffffffffffffffffffffffffffffffffffff168152602001600081525090565b610aac91905b80821115610aa8576000816000905550600101610a90565b5090565b9056fea265627a7a72315820fab84f1af827cf638735e66bffa7ed4fa87a1b983b9c804292ded7ebc55086ed64736f6c63430005100032",
  "source": "// SPDX-License-Identifier: MIT\r\npragma solidity >=0.4.0;\r\n\r\ncontract Voting{\r\n    struct Voting{\r\n        address payable creator_addr;\r\n        string title;\r\n        string content;\r\n        uint target_voting;\r\n        uint num_voted;\r\n        uint endtime;\r\n        bool isSuccess;\r\n        uint voter_num;\r\n        mapping(uint => Voter) voters;\r\n    }\r\n\r\n\r\n    struct Voter{\r\n        address payable add;\r\n        uint ticket;\r\n    }\r\n\r\n    uint public all_votings_num;\r\n    mapping(uint => Voting) public all_Votings;\r\n\r\n    function Vote_sender(uint _votingId) public payable {\r\n        require(msg.value>0);\r\n        require(block.timestamp<=all_Votings[_votingId].endtime);\r\n        Voting storage voting = all_Votings[_votingId];\r\n        uint voternum = voting.voter_num + 1;\r\n        voting.voter_num = voting.voter_num + 1;\r\n        Voter storage voter = voting.voters[voternum];\r\n        voter.add = msg.sender;\r\n        voter.ticket = msg.value;\r\n        voting.num_voted = voting.num_voted + msg.value;\r\n        if(voting.num_voted >= voting.target_voting)voting.isSuccess=true;\r\n    }\r\n\r\n    function Voting_constructor(address payable _initiator, string memory _title, string memory _content, uint _goalMoney, uint _endtime) public returns(uint) {\r\n        uint num = all_votings_num;\r\n        all_votings_num+=1;\r\n        Voting storage voting = all_Votings[num];\r\n        voting.creator_addr = _initiator;\r\n        voting.title = _title;\r\n        voting.content = _content;\r\n        voting.target_voting = _goalMoney;\r\n        voting.num_voted = 0;\r\n        voting.endtime = _endtime;\r\n        return num;\r\n    }\r\n\r\n    function getBalance() public view returns (uint) {\r\n        return address(this).balance;\r\n    }\r\n\r\n    function MyVotings(uint _votingId) public view returns(uint){\r\n        uint tickets=0;\r\n        Voting storage voting = all_Votings[_votingId];\r\n        for(uint j=1;j<=voting.voter_num;j++){\r\n            Voter memory voter = voting.voters[j];\r\n            if(voter.add==msg.sender)\r\n            tickets+=voter.ticket;\r\n        }\r\n        return tickets;\r\n    }\r\n    function MyCreatedVotings(uint _votingId) public view returns(bool){\r\n        bool check = true;\r\n        if(all_Votings[_votingId].creator_addr != msg.sender){\r\n            check = false;\r\n        }\r\n        return check;\r\n    }\r\n}",
  "sourcePath": "C:/Users/51472/OneDrive/desktop/blockchain/test4/BlockChainProject/contracts/Voting.sol",
  "compiler": {
    "name": "solc",
    "version": "0.5.16+commit.9c3226ce.Emscripten.clang"
  },
  "schemaVersion": "3.2.3",
  "updatedAt": "2022-05-13T22:06:25.189Z",
  "devdoc": {
    "methods": {}
  },
  "userdoc": {
    "methods": {}
  }
}