{
  "contractName": "Voting",
  "abi": [
    {
      "constant": true,
      "inputs": [
        {
          "internalType": "uint256",
          "name": "",
          "type": "uint256"
        }
      ],
      "name": "all_Votings",
      "outputs": [
        {
          "internalType": "address payable",
          "name": "creator_addr",
          "type": "address"
        },
        {
          "internalType": "string",
          "name": "title",
          "type": "string"
        },
        {
          "internalType": "string",
          "name": "content",
          "type": "string"
        },
        {
          "internalType": "uint256",
          "name": "target_voting",
          "type": "uint256"
        },
        {
          "internalType": "uint256",
          "name": "num_voted",
          "type": "uint256"
        },
        {
          "internalType": "uint256",
          "name": "usedMoney",
          "type": "uint256"
        },
        {
          "internalType": "uint256",
          "name": "deadline",
          "type": "uint256"
        },
        {
          "internalType": "bool",
          "name": "isSuccess",
          "type": "bool"
        },
        {
          "internalType": "uint256",
          "name": "voter_num",
          "type": "uint256"
        },
        {
          "internalType": "uint256",
          "name": "comment_num",
          "type": "uint256"
        }
      ],
      "payable": false,
      "stateMutability": "view",
      "type": "function"
    },
    {
      "constant": true,
      "inputs": [],
      "name": "all_votings_num",
      "outputs": [
        {
          "internalType": "uint256",
          "name": "",
          "type": "uint256"
        }
      ],
      "payable": false,
      "stateMutability": "view",
      "type": "function"
    },
    {
      "constant": false,
      "inputs": [
        {
          "internalType": "uint256",
          "name": "_votingId",
          "type": "uint256"
        }
      ],
      "name": "Vote_sender",
      "outputs": [],
      "payable": true,
      "stateMutability": "payable",
      "type": "function"
    },
    {
      "constant": false,
      "inputs": [
        {
          "internalType": "address payable",
          "name": "_initiator",
          "type": "address"
        },
        {
          "internalType": "string",
          "name": "_title",
          "type": "string"
        },
        {
          "internalType": "string",
          "name": "_content",
          "type": "string"
        },
        {
          "internalType": "uint256",
          "name": "_goalMoney",
          "type": "uint256"
        },
        {
          "internalType": "uint256",
          "name": "_remainingtime",
          "type": "uint256"
        }
      ],
      "name": "Voting_constructor",
      "outputs": [
        {
          "internalType": "uint256",
          "name": "",
          "type": "uint256"
        }
      ],
      "payable": false,
      "stateMutability": "nonpayable",
      "type": "function"
    },
    {
      "constant": false,
      "inputs": [
        {
          "internalType": "uint256",
          "name": "_votingId",
          "type": "uint256"
        },
        {
          "internalType": "string",
          "name": "_content",
          "type": "string"
        },
        {
          "internalType": "uint256",
          "name": "_amount",
          "type": "uint256"
        }
      ],
      "name": "Announcement_Creator",
      "outputs": [],
      "payable": false,
      "stateMutability": "nonpayable",
      "type": "function"
    },
    {
      "constant": false,
      "inputs": [
        {
          "internalType": "uint256",
          "name": "_votingId",
          "type": "uint256"
        },
        {
          "internalType": "uint256",
          "name": "_announcementId",
          "type": "uint256"
        },
        {
          "internalType": "bool",
          "name": "_isAgree",
          "type": "bool"
        }
      ],
      "name": "confirmAnnouncement",
      "outputs": [],
      "payable": false,
      "stateMutability": "nonpayable",
      "type": "function"
    },
    {
      "constant": true,
      "inputs": [
        {
          "internalType": "uint256",
          "name": "_votingId",
          "type": "uint256"
        },
        {
          "internalType": "uint256",
          "name": "_announcementId",
          "type": "uint256"
        }
      ],
      "name": "receiveAnnouncement",
      "outputs": [
        {
          "internalType": "string",
          "name": "",
          "type": "string"
        },
        {
          "internalType": "uint256",
          "name": "",
          "type": "uint256"
        },
        {
          "internalType": "uint256",
          "name": "",
          "type": "uint256"
        },
        {
          "internalType": "uint256",
          "name": "",
          "type": "uint256"
        },
        {
          "internalType": "uint256",
          "name": "",
          "type": "uint256"
        },
        {
          "internalType": "bool",
          "name": "",
          "type": "bool"
        }
      ],
      "payable": false,
      "stateMutability": "view",
      "type": "function"
    },
    {
      "constant": true,
      "inputs": [
        {
          "internalType": "uint256",
          "name": "_votingId",
          "type": "uint256"
        }
      ],
      "name": "num_of_Announcements",
      "outputs": [
        {
          "internalType": "uint256",
          "name": "",
          "type": "uint256"
        }
      ],
      "payable": false,
      "stateMutability": "view",
      "type": "function"
    },
    {
      "constant": true,
      "inputs": [],
      "name": "getBalance",
      "outputs": [
        {
          "internalType": "uint256",
          "name": "",
          "type": "uint256"
        }
      ],
      "payable": false,
      "stateMutability": "view",
      "type": "function"
    },
    {
      "constant": true,
      "inputs": [
        {
          "internalType": "uint256",
          "name": "_votingId",
          "type": "uint256"
        }
      ],
      "name": "MyVotings",
      "outputs": [
        {
          "internalType": "uint256",
          "name": "",
          "type": "uint256"
        }
      ],
      "payable": false,
      "stateMutability": "view",
      "type": "function"
    },
    {
      "constant": true,
      "inputs": [
        {
          "internalType": "uint256",
          "name": "_votingId",
          "type": "uint256"
        }
      ],
      "name": "MyCreatedVotings",
      "outputs": [
        {
          "internalType": "bool",
          "name": "",
          "type": "bool"
        }
      ],
      "payable": false,
      "stateMutability": "view",
      "type": "function"
    }
  ],
  "bytecode": "0x608060405234801561001057600080fd5b506113b0806100206000396000f3fe60806040526004361061009c5760003560e01c806363de7f081161006457806363de7f0814610502578063778fe30a14610551578063a8cea98b146105a2578063aafa2c15146105f5578063d5864d1614610623578063dab3a945146106725761009c565b8063089a0dc6146100a15780630a81cf0714610229578063108e2f881461030557806312065fe01461033057806339612ada1461035b575b600080fd5b3480156100ad57600080fd5b506100da600480360360208110156100c457600080fd5b8101908080359060200190929190505050610757565b604051808b73ffffffffffffffffffffffffffffffffffffffff1673ffffffffffffffffffffffffffffffffffffffff16815260200180602001806020018a81526020018981526020018881526020018781526020018615151515815260200185815260200184815260200183810383528c818151815260200191508051906020019080838360005b8381101561017e578082015181840152602081019050610163565b50505050905090810190601f1680156101ab5780820380516001836020036101000a031916815260200191505b5083810382528b818151815260200191508051906020019080838360005b838110156101e45780820151818401526020810190506101c9565b50505050905090810190601f1680156102115780820380516001836020036101000a031916815260200191505b509c5050505050505050505050505060405180910390f35b34801561023557600080fd5b506103036004803603606081101561024c57600080fd5b81019080803590602001909291908035906020019064010000000081111561027357600080fd5b82018360208201111561028557600080fd5b803590602001918460018302840111640100000000831117156102a757600080fd5b91908080601f016020809104026020016040519081016040528093929190818152602001838380828437600081840152601f19601f82011690508083019250505050505050919291929080359060200190929190505050610908565b005b34801561031157600080fd5b5061031a6109f4565b6040518082815260200191505060405180910390f35b34801561033c57600080fd5b506103456109fa565b6040518082815260200191505060405180910390f35b34801561036757600080fd5b506104ec600480360360a081101561037e57600080fd5b81019080803573ffffffffffffffffffffffffffffffffffffffff169060200190929190803590602001906401000000008111156103bb57600080fd5b8201836020820111156103cd57600080fd5b803590602001918460018302840111640100000000831117156103ef57600080fd5b91908080601f016020809104026020016040519081016040528093929190818152602001838380828437600081840152601f19601f8201169050808301925050505050505091929192908035906020019064010000000081111561045257600080fd5b82018360208201111561046457600080fd5b8035906020019184600183028401116401000000008311171561048657600080fd5b91908080601f016020809104026020016040519081016040528093929190818152602001838380828437600081840152601f19601f8201169050808301925050505050505091929192908035906020019092919080359060200190929190505050610a02565b6040518082815260200191505060405180910390f35b34801561050e57600080fd5b5061053b6004803603602081101561052557600080fd5b8101908080359060200190929190505050610ad2565b6040518082815260200191505060405180910390f35b34801561055d57600080fd5b506105a06004803603606081101561057457600080fd5b810190808035906020019092919080359060200190929190803515159060200190929190505050610af2565b005b3480156105ae57600080fd5b506105db600480360360208110156105c557600080fd5b8101908080359060200190929190505050610eb2565b604051808215151515815260200191505060405180910390f35b6106216004803603602081101561060b57600080fd5b8101908080359060200190929190505050610f30565b005b34801561062f57600080fd5b5061065c6004803603602081101561064657600080fd5b8101908080359060200190929190505050611040565b6040518082815260200191505060405180910390f35b34801561067e57600080fd5b506106b56004803603604081101561069557600080fd5b810190808035906020019092919080359060200190929190505050611155565b604051808060200187815260200186815260200185815260200184815260200183151515158152602001828103825288818151815260200191508051906020019080838360005b838110156107175780820151818401526020810190506106fc565b50505050905090810190601f1680156107445780820380516001836020036101000a031916815260200191505b5097505050505050505060405180910390f35b60016020528060005260406000206000915090508060000160009054906101000a900473ffffffffffffffffffffffffffffffffffffffff1690806001018054600181600116156101000203166002900480601f0160208091040260200160405190810160405280929190818152602001828054600181600116156101000203166002900480156108295780601f106107fe57610100808354040283529160200191610829565b820191906000526020600020905b81548152906001019060200180831161080c57829003601f168201915b505050505090806002018054600181600116156101000203166002900480601f0160208091040260200160405190810160405280929190818152602001828054600181600116156101000203166002900480156108c75780601f1061089c576101008083540402835291602001916108c7565b820191906000526020600020905b8154815290600101906020018083116108aa57829003601f168201915b5050505050908060030154908060040154908060050154908060060154908060070160009054906101000a900460ff1690806008015490806009015490508a565b60006001600085815260200190815260200160002090503373ffffffffffffffffffffffffffffffffffffffff168160000160009054906101000a900473ffffffffffffffffffffffffffffffffffffffff1673ffffffffffffffffffffffffffffffffffffffff161461097b57600080fd5b60006001826009015401905060018260090160008282540192505081905550600082600b0160008381526020019081526020016000209050848160000190805190602001906109cb9291906112a6565b5083816001018190555060028360040154816109e357fe5b048160040181905550505050505050565b60005481565b600047905090565b6000806000549050600160008082825401925050819055506000600160008381526020019081526020016000209050878160000160006101000a81548173ffffffffffffffffffffffffffffffffffffffff021916908373ffffffffffffffffffffffffffffffffffffffff16021790555086816001019080519060200190610a8c9291906112a6565b5085816002019080519060200190610aa59291906112a6565b50848160030181905550600081600401819055504284018160060181905550819250505095945050505050565b600060016000838152602001908152602001600020600901549050919050565b8260008110158015610b0657506000548111155b610b0f57600080fd5b600060016000838152602001908152602001600020905060008090506000600190505b82600801548111610c1257610b45611326565b83600a0160008381526020019081526020016000206040518060400160405290816000820160009054906101000a900473ffffffffffffffffffffffffffffffffffffffff1673ffffffffffffffffffffffffffffffffffffffff1673ffffffffffffffffffffffffffffffffffffffff16815260200160018201548152505090503373ffffffffffffffffffffffffffffffffffffffff16816000015173ffffffffffffffffffffffffffffffffffffffff161415610c0457600192505b508080600101915050610b32565b506001151581151514610c2457600080fd5b600060016000888152602001908152602001600020905060018610158015610c50575080600901548711155b610c5957600080fd5b600081600b01600088815260200190815260200160002090506000600190505b82600801548111610dc357610c8c611326565b83600a0160008381526020019081526020016000206040518060400160405290816000820160009054906101000a900473ffffffffffffffffffffffffffffffffffffffff1673ffffffffffffffffffffffffffffffffffffffff1673ffffffffffffffffffffffffffffffffffffffff16815260200160018201548152505090503373ffffffffffffffffffffffffffffffffffffffff16816000015173ffffffffffffffffffffffffffffffffffffffff161415610db5578715610d825760018360050160008481526020019081526020016000208190555080602001518360020160008282540192505081905550610db4565b600283600501600084815260200190815260200160002081905550806020015183600301600082825401925050819055505b5b508080600101915050610c79565b508060040154816002015410610e7a5760018160060160006101000a81548160ff0219169083151502179055508160000160009054906101000a900473ffffffffffffffffffffffffffffffffffffffff1673ffffffffffffffffffffffffffffffffffffffff166108fc82600101549081150290604051600060405180830381858888f19350505050158015610e5e573d6000803e3d6000fd5b5080600101548260050160008282540192505081905550610ea8565b8060040154816003015410610ea75760008160060160006101000a81548160ff0219169083151502179055505b5b5050505050505050565b600080600190503373ffffffffffffffffffffffffffffffffffffffff166001600085815260200190815260200160002060000160009054906101000a900473ffffffffffffffffffffffffffffffffffffffff1673ffffffffffffffffffffffffffffffffffffffff1614610f2757600090505b80915050919050565b60003411610f3d57600080fd5b6001600082815260200190815260200160002060060154421115610f6057600080fd5b600060016000838152602001908152602001600020905060006001826008015401905060018260080160008282540192505081905550600082600a0160008381526020019081526020016000209050338160000160006101000a81548173ffffffffffffffffffffffffffffffffffffffff021916908373ffffffffffffffffffffffffffffffffffffffff160217905550348160010181905550348360040160008282540192505081905550826003015483600401541061103a5760018360070160006101000a81548160ff0219169083151502179055505b50505050565b6000806000905060006001600085815260200190815260200160002090506000600190505b8160080154811161114a57611078611326565b82600a0160008381526020019081526020016000206040518060400160405290816000820160009054906101000a900473ffffffffffffffffffffffffffffffffffffffff1673ffffffffffffffffffffffffffffffffffffffff1673ffffffffffffffffffffffffffffffffffffffff16815260200160018201548152505090503373ffffffffffffffffffffffffffffffffffffffff16816000015173ffffffffffffffffffffffffffffffffffffffff16141561113c578060200151840193505b508080600101915050611065565b508192505050919050565b6060600080600080600080881015801561117157506000548811155b61117a57600080fd5b6000600160008a81526020019081526020016000209050600188101580156111a6575080600901548911155b6111af57600080fd5b600081600b0160008a815260200190815260200160002090508060000181600101548260020154836003015484600401548560060160009054906101000a900460ff16858054600181600116156101000203166002900480601f0160208091040260200160405190810160405280929190818152602001828054600181600116156101000203166002900480156112875780601f1061125c57610100808354040283529160200191611287565b820191906000526020600020905b81548152906001019060200180831161126a57829003601f168201915b5050505050955097509750975097509750975050509295509295509295565b828054600181600116156101000203166002900490600052602060002090601f016020900481019282601f106112e757805160ff1916838001178555611315565b82800160010185558215611315579182015b828111156113145782518255916020019190600101906112f9565b5b5090506113229190611356565b5090565b6040518060400160405280600073ffffffffffffffffffffffffffffffffffffffff168152602001600081525090565b61137891905b8082111561137457600081600090555060010161135c565b5090565b9056fea265627a7a72315820d24259390e6c17c3f92dfea3fe89119b6a5c464b35e3c461bc89ac92fa77bf4364736f6c63430005100032",
  "source": "pragma solidity >=0.4.0;\r\n\r\ncontract Voting{\r\n    struct Voting{\r\n        address payable creator_addr; //众筹项目发起者\r\n        string title;//标题\r\n        string content;//内容\r\n        uint target_voting;//目标金额\r\n        uint num_voted;//已筹集金额\r\n        uint usedMoney;//已使用金额\r\n        uint deadline;//众筹项目截止日期\r\n        bool isSuccess;//是否筹集成功\r\n        uint voter_num;//投资人数量\r\n        uint comment_num;//申请使用资金的次数\r\n        mapping(uint => Voter) voters;//投资者\r\n        mapping(uint => Announcement) comments;//申请使用资金的记录\r\n    }\r\n\r\n    // 投资者信息\r\n    struct Voter{\r\n        address payable add; //投资者地址\r\n        uint ticket; //投资者的投资金额\r\n    }\r\n\r\n    uint public all_votings_num;//众筹项目的总数量 ??????????\r\n    mapping(uint => Voting) public all_Votings;//所有众筹项目的map ??????????\r\n\r\n\r\n    \r\n    //投资项目的函数\r\n    function Vote_sender(uint _votingId) public payable {\r\n        require(msg.value>0);\r\n        require(block.timestamp<=all_Votings[_votingId].deadline);\r\n        Voting storage voting = all_Votings[_votingId];\r\n        uint funderNum = voting.voter_num + 1;\r\n        voting.voter_num += 1;\r\n        Voter storage voter = voting.voters[funderNum];\r\n        voter.add = msg.sender;\r\n        voter.ticket = msg.value;\r\n        voting.num_voted += msg.value;\r\n        if(voting.num_voted >= voting.target_voting)voting.isSuccess=true;\r\n    }\r\n    //创建众筹项目的函数\r\n    function Voting_constructor(address payable _initiator, string memory _title, string memory _content, uint _goalMoney, uint _remainingtime) public returns(uint) {\r\n        uint num = all_votings_num;\r\n        all_votings_num+=1;\r\n        Voting storage voting = all_Votings[num];\r\n        voting.creator_addr = _initiator;\r\n        voting.title = _title;\r\n        voting.content = _content;\r\n        voting.target_voting = _goalMoney;\r\n        voting.num_voted = 0;\r\n        voting.deadline = _remainingtime + block.timestamp;\r\n        return num;\r\n    }\r\n    \r\n    //申请使用资金的记录\r\n    struct Announcement{\r\n        string content;//申请说明\r\n        uint amount;//申请金额\r\n        uint agreeAmount;//持同意态度的投资者的金额之和\r\n        uint disAmount;//持反对态度的投资者的金额之和\r\n        uint goal;//可以转账的最低金额，数值上等于amount的一般\r\n        mapping(uint => uint) states;//该记录的状态\r\n        bool isAgreed;//是否通过\r\n    }\r\n    //创建申请资金的记录\r\n    function Announcement_Creator(uint _votingId, string memory _content, uint _amount) public {\r\n        Voting storage voting = all_Votings[_votingId];\r\n        require(voting.creator_addr == msg.sender);\r\n        uint counter = voting.comment_num + 1;\r\n        voting.comment_num+=1;\r\n        Announcement storage announcement = voting.comments[counter];\r\n        announcement.content = _content;\r\n        announcement.amount = _amount;\r\n        announcement.goal = voting.num_voted / 2;\r\n    }\r\n    //审批申请的函数\r\n    function confirmAnnouncement(uint _votingId, uint _announcementId, bool _isAgree) public isVoterInVoting(_votingId){\r\n        Voting storage voting = all_Votings[_votingId];\r\n        require(_announcementId>=1 && _votingId<=voting.comment_num);\r\n        Announcement storage announcement = voting.comments[_announcementId];\r\n        for(uint i = 1; i<=voting.voter_num;i++){\r\n            Voter memory voter = voting.voters[i];\r\n            if(voter.add==msg.sender){\r\n                if(_isAgree){\r\n                    announcement.states[i]=1;\r\n                    announcement.agreeAmount += voter.ticket;\r\n                }\r\n                else{\r\n                    announcement.states[i]=2;\r\n                    announcement.disAmount += voter.ticket;\r\n                }\r\n            }\r\n        }\r\n        if(announcement.agreeAmount >= announcement.goal){\r\n            announcement.isAgreed = true;\r\n            voting.creator_addr.transfer(announcement.amount);\r\n            voting.usedMoney += announcement.amount;\r\n        }\r\n        else if(announcement.disAmount >=announcement.goal){\r\n            announcement.isAgreed = false;\r\n        }\r\n    }\r\n    //获取的申请记录\r\n    function receiveAnnouncement(uint _votingId, uint _announcementId) public view returns(string memory, uint, uint, uint, uint, bool) {\r\n        require(_votingId>=0 && _votingId<=all_votings_num);\r\n        Voting storage voting = all_Votings[_votingId];\r\n        require(_announcementId>=1 && _votingId<=voting.comment_num);\r\n        Announcement storage announcement = voting.comments[_announcementId];\r\n        return (announcement.content, announcement.amount, announcement.agreeAmount, announcement.disAmount, announcement.goal, announcement.isAgreed);\r\n    }\r\n    //获取申请记录的数量\r\n    function num_of_Announcements(uint _votingId) public view returns(uint){\r\n        return all_Votings[_votingId].comment_num;\r\n    }\r\n    //获取合约地址的剩余资金\r\n    function getBalance() public view returns (uint) {\r\n        return address(this).balance;\r\n    }\r\n    //make sure the voter is in this voting\r\n    modifier isVoterInVoting(uint _votingId){\r\n        require(_votingId>=0 && _votingId<=all_votings_num);\r\n        Voting storage voting = all_Votings[_votingId];\r\n        bool check = false;\r\n        for(uint i = 1; i<=voting.voter_num;i++){\r\n            Voter memory voter = voting.voters[i];\r\n            if(voter.add==msg.sender)\r\n            check = true;\r\n        }\r\n        require(check == true);\r\n        _;\r\n    }\r\n    \r\n    function MyVotings(uint _votingId) public view returns(uint){\r\n        uint tickets=0;\r\n        Voting storage voting = all_Votings[_votingId];\r\n        for(uint j=1;j<=voting.voter_num;j++){\r\n            Voter memory voter = voting.voters[j];\r\n            if(voter.add==msg.sender)\r\n            tickets+=voter.ticket;\r\n        }\r\n        return tickets;\r\n    }\r\n    \r\n    function MyCreatedVotings(uint _votingId) public view returns(bool){\r\n        bool check = true;\r\n        if(all_Votings[_votingId].creator_addr != msg.sender){\r\n            check = false;\r\n        }\r\n        return check;\r\n    }\r\n}\r\n",
  "sourcePath": "C:/Users/51472/OneDrive/desktop/blockchain/test4/BlockChainProject/contracts/Voting.sol",
  "compiler": {
    "name": "solc",
    "version": "0.5.16+commit.9c3226ce.Emscripten.clang"
  },
  "schemaVersion": "3.2.3",
  "updatedAt": "2022-05-11T23:23:31.726Z",
  "networkType": "ethereum",
  "devdoc": {
    "methods": {}
  },
  "userdoc": {
    "methods": {}
  }
}