{
  "contractName": "Voting",
  "abi": [
    {
      "constant": true,
      "inputs": [
        {
          "internalType": "uint256",
          "name": "",
          "type": "uint256"
        }
      ],
      "name": "all_Votings",
      "outputs": [
        {
          "internalType": "address payable",
          "name": "creator_addr",
          "type": "address"
        },
        {
          "internalType": "string",
          "name": "title",
          "type": "string"
        },
        {
          "internalType": "string",
          "name": "content",
          "type": "string"
        },
        {
          "internalType": "uint256",
          "name": "target_voting",
          "type": "uint256"
        },
        {
          "internalType": "uint256",
          "name": "num_voted",
          "type": "uint256"
        },
        {
          "internalType": "uint256",
          "name": "usedMoney",
          "type": "uint256"
        },
        {
          "internalType": "uint256",
          "name": "deadline",
          "type": "uint256"
        },
        {
          "internalType": "bool",
          "name": "isSuccess",
          "type": "bool"
        },
        {
          "internalType": "uint256",
          "name": "voter_num",
          "type": "uint256"
        },
        {
          "internalType": "uint256",
          "name": "comment_num",
          "type": "uint256"
        }
      ],
      "payable": false,
      "stateMutability": "view",
      "type": "function"
    },
    {
      "constant": true,
      "inputs": [],
      "name": "all_votings_num",
      "outputs": [
        {
          "internalType": "uint256",
          "name": "",
          "type": "uint256"
        }
      ],
      "payable": false,
      "stateMutability": "view",
      "type": "function"
    },
    {
      "constant": false,
      "inputs": [
        {
          "internalType": "uint256",
          "name": "_votingId",
          "type": "uint256"
        }
      ],
      "name": "contribute",
      "outputs": [],
      "payable": true,
      "stateMutability": "payable",
      "type": "function"
    },
    {
      "constant": false,
      "inputs": [
        {
          "internalType": "address payable",
          "name": "_initiator",
          "type": "address"
        },
        {
          "internalType": "string",
          "name": "_title",
          "type": "string"
        },
        {
          "internalType": "string",
          "name": "_content",
          "type": "string"
        },
        {
          "internalType": "uint256",
          "name": "_goalMoney",
          "type": "uint256"
        },
        {
          "internalType": "uint256",
          "name": "_remainingtime",
          "type": "uint256"
        }
      ],
      "name": "createFunding",
      "outputs": [
        {
          "internalType": "uint256",
          "name": "",
          "type": "uint256"
        }
      ],
      "payable": false,
      "stateMutability": "nonpayable",
      "type": "function"
    },
    {
      "constant": false,
      "inputs": [
        {
          "internalType": "uint256",
          "name": "_votingId",
          "type": "uint256"
        },
        {
          "internalType": "string",
          "name": "_content",
          "type": "string"
        },
        {
          "internalType": "uint256",
          "name": "_amount",
          "type": "uint256"
        }
      ],
      "name": "Announcement_Creator",
      "outputs": [],
      "payable": false,
      "stateMutability": "nonpayable",
      "type": "function"
    },
    {
      "constant": false,
      "inputs": [
        {
          "internalType": "uint256",
          "name": "_votingId",
          "type": "uint256"
        },
        {
          "internalType": "uint256",
          "name": "_announcementId",
          "type": "uint256"
        },
        {
          "internalType": "bool",
          "name": "_isAgree",
          "type": "bool"
        }
      ],
      "name": "confirmAnnouncement",
      "outputs": [],
      "payable": false,
      "stateMutability": "nonpayable",
      "type": "function"
    },
    {
      "constant": true,
      "inputs": [
        {
          "internalType": "uint256",
          "name": "_votingId",
          "type": "uint256"
        },
        {
          "internalType": "uint256",
          "name": "_announcementId",
          "type": "uint256"
        }
      ],
      "name": "receiveAnnouncement",
      "outputs": [
        {
          "internalType": "string",
          "name": "",
          "type": "string"
        },
        {
          "internalType": "uint256",
          "name": "",
          "type": "uint256"
        },
        {
          "internalType": "uint256",
          "name": "",
          "type": "uint256"
        },
        {
          "internalType": "uint256",
          "name": "",
          "type": "uint256"
        },
        {
          "internalType": "uint256",
          "name": "",
          "type": "uint256"
        },
        {
          "internalType": "bool",
          "name": "",
          "type": "bool"
        }
      ],
      "payable": false,
      "stateMutability": "view",
      "type": "function"
    },
    {
      "constant": true,
      "inputs": [
        {
          "internalType": "uint256",
          "name": "_votingId",
          "type": "uint256"
        }
      ],
      "name": "num_of_Announcements",
      "outputs": [
        {
          "internalType": "uint256",
          "name": "",
          "type": "uint256"
        }
      ],
      "payable": false,
      "stateMutability": "view",
      "type": "function"
    },
    {
      "constant": true,
      "inputs": [],
      "name": "getBalance",
      "outputs": [
        {
          "internalType": "uint256",
          "name": "",
          "type": "uint256"
        }
      ],
      "payable": false,
      "stateMutability": "view",
      "type": "function"
    },
    {
      "constant": true,
      "inputs": [
        {
          "internalType": "uint256",
          "name": "_votingId",
          "type": "uint256"
        }
      ],
      "name": "MyVotings",
      "outputs": [
        {
          "internalType": "uint256",
          "name": "",
          "type": "uint256"
        }
      ],
      "payable": false,
      "stateMutability": "view",
      "type": "function"
    },
    {
      "constant": true,
      "inputs": [
        {
          "internalType": "uint256",
          "name": "_votingId",
          "type": "uint256"
        }
      ],
      "name": "MyCreatedVotings",
      "outputs": [
        {
          "internalType": "bool",
          "name": "",
          "type": "bool"
        }
      ],
      "payable": false,
      "stateMutability": "view",
      "type": "function"
    }
  ],
  "bytecode": "0x608060405234801561001057600080fd5b506113ae806100206000396000f3fe60806040526004361061009c5760003560e01c806363e4f6df1161006457806363e4f6df1461031d578063a2268a4a14610370578063a891bfa914610517578063aba21009146105f3578063c1cbbca7146106d8578063ce814ef5146107065761009c565b8063026f4aff146100a1578063089a0dc6146100f05780630960702e14610278578063108e2f88146102c757806312065fe0146102f2575b600080fd5b3480156100ad57600080fd5b506100da600480360360208110156100c457600080fd5b8101908080359060200190929190505050610757565b6040518082815260200191505060405180910390f35b3480156100fc57600080fd5b506101296004803603602081101561011357600080fd5b8101908080359060200190929190505050610777565b604051808b73ffffffffffffffffffffffffffffffffffffffff1673ffffffffffffffffffffffffffffffffffffffff16815260200180602001806020018a81526020018981526020018881526020018781526020018615151515815260200185815260200184815260200183810383528c818151815260200191508051906020019080838360005b838110156101cd5780820151818401526020810190506101b2565b50505050905090810190601f1680156101fa5780820380516001836020036101000a031916815260200191505b5083810382528b818151815260200191508051906020019080838360005b83811015610233578082015181840152602081019050610218565b50505050905090810190601f1680156102605780820380516001836020036101000a031916815260200191505b509c5050505050505050505050505060405180910390f35b34801561028457600080fd5b506102b16004803603602081101561029b57600080fd5b8101908080359060200190929190505050610928565b6040518082815260200191505060405180910390f35b3480156102d357600080fd5b506102dc610a3d565b6040518082815260200191505060405180910390f35b3480156102fe57600080fd5b50610307610a43565b6040518082815260200191505060405180910390f35b34801561032957600080fd5b506103566004803603602081101561034057600080fd5b8101908080359060200190929190505050610a4b565b604051808215151515815260200191505060405180910390f35b34801561037c57600080fd5b50610501600480360360a081101561039357600080fd5b81019080803573ffffffffffffffffffffffffffffffffffffffff169060200190929190803590602001906401000000008111156103d057600080fd5b8201836020820111156103e257600080fd5b8035906020019184600183028401116401000000008311171561040457600080fd5b91908080601f016020809104026020016040519081016040528093929190818152602001838380828437600081840152601f19601f8201169050808301925050505050505091929192908035906020019064010000000081111561046757600080fd5b82018360208201111561047957600080fd5b8035906020019184600183028401116401000000008311171561049b57600080fd5b91908080601f016020809104026020016040519081016040528093929190818152602001838380828437600081840152601f19601f8201169050808301925050505050505091929192908035906020019092919080359060200190929190505050610ac7565b6040518082815260200191505060405180910390f35b34801561052357600080fd5b506105f16004803603606081101561053a57600080fd5b81019080803590602001909291908035906020019064010000000081111561056157600080fd5b82018360208201111561057357600080fd5b8035906020019184600183028401116401000000008311171561059557600080fd5b91908080601f016020809104026020016040519081016040528093929190818152602001838380828437600081840152601f19601f82011690508083019250505050505050919291929080359060200190929190505050610b97565b005b3480156105ff57600080fd5b506106366004803603604081101561061657600080fd5b810190808035906020019092919080359060200190929190505050610c83565b604051808060200187815260200186815260200185815260200184815260200183151515158152602001828103825288818151815260200191508051906020019080838360005b8381101561069857808201518184015260208101905061067d565b50505050905090810190601f1680156106c55780820380516001836020036101000a031916815260200191505b5097505050505050505060405180910390f35b610704600480360360208110156106ee57600080fd5b8101908080359060200190929190505050610dd4565b005b34801561071257600080fd5b506107556004803603606081101561072957600080fd5b810190808035906020019092919080359060200190929190803515159060200190929190505050610ee4565b005b600060016000838152602001908152602001600020600901549050919050565b60016020528060005260406000206000915090508060000160009054906101000a900473ffffffffffffffffffffffffffffffffffffffff1690806001018054600181600116156101000203166002900480601f0160208091040260200160405190810160405280929190818152602001828054600181600116156101000203166002900480156108495780601f1061081e57610100808354040283529160200191610849565b820191906000526020600020905b81548152906001019060200180831161082c57829003601f168201915b505050505090806002018054600181600116156101000203166002900480601f0160208091040260200160405190810160405280929190818152602001828054600181600116156101000203166002900480156108e75780601f106108bc576101008083540402835291602001916108e7565b820191906000526020600020905b8154815290600101906020018083116108ca57829003601f168201915b5050505050908060030154908060040154908060050154908060060154908060070160009054906101000a900460ff1690806008015490806009015490508a565b6000806000905060006001600085815260200190815260200160002090506000600190505b81600801548111610a32576109606112a4565b82600a0160008381526020019081526020016000206040518060400160405290816000820160009054906101000a900473ffffffffffffffffffffffffffffffffffffffff1673ffffffffffffffffffffffffffffffffffffffff1673ffffffffffffffffffffffffffffffffffffffff16815260200160018201548152505090503373ffffffffffffffffffffffffffffffffffffffff16816000015173ffffffffffffffffffffffffffffffffffffffff161415610a24578060200151840193505b50808060010191505061094d565b508192505050919050565b60005481565b600047905090565b60003373ffffffffffffffffffffffffffffffffffffffff166001600084815260200190815260200160002060000160009054906101000a900473ffffffffffffffffffffffffffffffffffffffff1673ffffffffffffffffffffffffffffffffffffffff1614610abd576000610ac0565b60015b9050919050565b6000806000549050600160008082825401925050819055506000600160008381526020019081526020016000209050878160000160006101000a81548173ffffffffffffffffffffffffffffffffffffffff021916908373ffffffffffffffffffffffffffffffffffffffff16021790555086816001019080519060200190610b519291906112d4565b5085816002019080519060200190610b6a9291906112d4565b50848160030181905550600081600401819055504284018160060181905550819250505095945050505050565b60006001600085815260200190815260200160002090503373ffffffffffffffffffffffffffffffffffffffff168160000160009054906101000a900473ffffffffffffffffffffffffffffffffffffffff1673ffffffffffffffffffffffffffffffffffffffff1614610c0a57600080fd5b60006001826009015401905060018260090160008282540192505081905550600082600b016000838152602001908152602001600020905084816000019080519060200190610c5a9291906112d4565b508381600101819055506002836004015481610c7257fe5b048160040181905550505050505050565b60606000806000806000808810158015610c9f57506000548811155b610ca857600080fd5b6000600160008a8152602001908152602001600020905060018810158015610cd4575080600901548911155b610cdd57600080fd5b600081600b0160008a815260200190815260200160002090508060000181600101548260020154836003015484600401548560060160009054906101000a900460ff16858054600181600116156101000203166002900480601f016020809104026020016040519081016040528092919081815260200182805460018160011615610100020316600290048015610db55780601f10610d8a57610100808354040283529160200191610db5565b820191906000526020600020905b815481529060010190602001808311610d9857829003601f168201915b5050505050955097509750975097509750975050509295509295509295565b60003411610de157600080fd5b6001600082815260200190815260200160002060060154421115610e0457600080fd5b600060016000838152602001908152602001600020905060006001826008015401905060018260080160008282540192505081905550600082600a0160008381526020019081526020016000209050338160000160006101000a81548173ffffffffffffffffffffffffffffffffffffffff021916908373ffffffffffffffffffffffffffffffffffffffff1602179055503481600101819055503483600401600082825401925050819055508260030154836004015410610ede5760018360070160006101000a81548160ff0219169083151502179055505b50505050565b8260008110158015610ef857506000548111155b610f0157600080fd5b600060016000838152602001908152602001600020905060008090506000600190505b8260080154811161100457610f376112a4565b83600a0160008381526020019081526020016000206040518060400160405290816000820160009054906101000a900473ffffffffffffffffffffffffffffffffffffffff1673ffffffffffffffffffffffffffffffffffffffff1673ffffffffffffffffffffffffffffffffffffffff16815260200160018201548152505090503373ffffffffffffffffffffffffffffffffffffffff16816000015173ffffffffffffffffffffffffffffffffffffffff161415610ff657600192505b508080600101915050610f24565b50600115158115151461101657600080fd5b600060016000888152602001908152602001600020905060018610158015611042575080600901548711155b61104b57600080fd5b600081600b01600088815260200190815260200160002090506000600190505b826008015481116111b55761107e6112a4565b83600a0160008381526020019081526020016000206040518060400160405290816000820160009054906101000a900473ffffffffffffffffffffffffffffffffffffffff1673ffffffffffffffffffffffffffffffffffffffff1673ffffffffffffffffffffffffffffffffffffffff16815260200160018201548152505090503373ffffffffffffffffffffffffffffffffffffffff16816000015173ffffffffffffffffffffffffffffffffffffffff1614156111a757871561117457600183600501600084815260200190815260200160002081905550806020015183600201600082825401925050819055506111a6565b600283600501600084815260200190815260200160002081905550806020015183600301600082825401925050819055505b5b50808060010191505061106b565b50806004015481600201541061126c5760018160060160006101000a81548160ff0219169083151502179055508160000160009054906101000a900473ffffffffffffffffffffffffffffffffffffffff1673ffffffffffffffffffffffffffffffffffffffff166108fc82600101549081150290604051600060405180830381858888f19350505050158015611250573d6000803e3d6000fd5b508060010154826005016000828254019250508190555061129a565b80600401548160030154106112995760008160060160006101000a81548160ff0219169083151502179055505b5b5050505050505050565b6040518060400160405280600073ffffffffffffffffffffffffffffffffffffffff168152602001600081525090565b828054600181600116156101000203166002900490600052602060002090601f016020900481019282601f1061131557805160ff1916838001178555611343565b82800160010185558215611343579182015b82811115611342578251825591602001919060010190611327565b5b5090506113509190611354565b5090565b61137691905b8082111561137257600081600090555060010161135a565b5090565b9056fea265627a7a7231582023d62885633ce20e6e0f9d41f4ff660d93171b60fd4e5fbebf582537342f3e8764736f6c63430005100032",
  "source": "pragma solidity >=0.4.0;\r\n\r\ncontract Voting{\r\n    struct Voting{\r\n        address payable creator_addr; //众筹项目发起者\r\n        string title;//标题\r\n        string content;//内容\r\n        uint target_voting;//目标金额\r\n        uint num_voted;//已筹集金额\r\n        uint usedMoney;//已使用金额\r\n        uint deadline;//众筹项目截止日期\r\n        bool isSuccess;//是否筹集成功\r\n        uint voter_num;//投资人数量\r\n        uint comment_num;//申请使用资金的次数\r\n        mapping(uint => Voter) voters;//投资者\r\n        mapping(uint => Announcement) comments;//申请使用资金的记录\r\n    }\r\n\r\n    // 投资者信息\r\n    struct Voter{\r\n        address payable add; //投资者地址\r\n        uint ticket; //投资者的投资金额\r\n    }\r\n\r\n    uint public all_votings_num;//众筹项目的总数量 ??????????\r\n    mapping(uint => Voting) public all_Votings;//所有众筹项目的map ??????????\r\n\r\n\r\n    //申请使用资金的记录\r\n    struct Announcement{\r\n        string content;//申请说明\r\n        uint amount;//申请金额\r\n        uint agreeAmount;//持同意态度的投资者的金额之和\r\n        uint disAmount;//持反对态度的投资者的金额之和\r\n        uint goal;//可以转账的最低金额，数值上等于amount的一般\r\n        mapping(uint => uint) states;//该记录的状态\r\n        bool isAgreed;//是否通过\r\n    }\r\n    //投资项目的函数\r\n    function contribute(uint _votingId) public payable {\r\n        require(msg.value>0);\r\n        require(block.timestamp<=all_Votings[_votingId].deadline);\r\n        Voting storage voting = all_Votings[_votingId];\r\n        uint funderNum = voting.voter_num + 1;\r\n        voting.voter_num += 1;\r\n        Voter storage voter = voting.voters[funderNum];\r\n        voter.add = msg.sender;\r\n        voter.ticket = msg.value;\r\n        voting.num_voted += msg.value;\r\n        if(voting.num_voted >= voting.target_voting)voting.isSuccess=true;\r\n    }\r\n    //创建众筹项目的函数\r\n    function createFunding(address payable _initiator, string memory _title, string memory _content, uint _goalMoney, uint _remainingtime) public returns(uint) {\r\n        uint num = all_votings_num;\r\n        all_votings_num+=1;\r\n        Voting storage voting = all_Votings[num];\r\n        voting.creator_addr = _initiator;\r\n        voting.title = _title;\r\n        voting.content = _content;\r\n        voting.target_voting = _goalMoney;\r\n        voting.num_voted = 0;\r\n        voting.deadline = _remainingtime + block.timestamp;\r\n        return num;\r\n    }\r\n    \r\n\r\n    //创建申请资金的记录\r\n    function Announcement_Creator(uint _votingId, string memory _content, uint _amount) public {\r\n        Voting storage voting = all_Votings[_votingId];\r\n        require(voting.creator_addr == msg.sender);\r\n        uint counter = voting.comment_num + 1;\r\n        voting.comment_num+=1;\r\n        Announcement storage announcement = voting.comments[counter];\r\n        announcement.content = _content;\r\n        announcement.amount = _amount;\r\n        announcement.goal = voting.num_voted / 2;\r\n    }\r\n    //审批申请的函数\r\n    function confirmAnnouncement(uint _votingId, uint _announcementId, bool _isAgree) public isVoterInVoting(_votingId){\r\n        Voting storage voting = all_Votings[_votingId];\r\n        require(_announcementId>=1 && _votingId<=voting.comment_num);\r\n        Announcement storage announcement = voting.comments[_announcementId];\r\n        for(uint i = 1; i<=voting.voter_num;i++){\r\n            Voter memory voter = voting.voters[i];\r\n            if(voter.add==msg.sender){\r\n                if(_isAgree){\r\n                    announcement.states[i]=1;\r\n                    announcement.agreeAmount += voter.ticket;\r\n                }\r\n                else{\r\n                    announcement.states[i]=2;\r\n                    announcement.disAmount += voter.ticket;\r\n                }\r\n            }\r\n        }\r\n        if(announcement.agreeAmount >= announcement.goal){\r\n            announcement.isAgreed = true;\r\n            voting.creator_addr.transfer(announcement.amount);\r\n            voting.usedMoney += announcement.amount;\r\n        }\r\n        else if(announcement.disAmount >=announcement.goal){\r\n            announcement.isAgreed = false;\r\n        }\r\n    }\r\n    //获取的申请记录\r\n    function receiveAnnouncement(uint _votingId, uint _announcementId) public view returns(string memory, uint, uint, uint, uint, bool) {\r\n        require(_votingId>=0 && _votingId<=all_votings_num);\r\n        Voting storage voting = all_Votings[_votingId];\r\n        require(_announcementId>=1 && _votingId<=voting.comment_num);\r\n        Announcement storage announcement = voting.comments[_announcementId];\r\n        return (announcement.content, announcement.amount, announcement.agreeAmount, announcement.disAmount, announcement.goal, announcement.isAgreed);\r\n    }\r\n    //获取申请记录的数量\r\n    function num_of_Announcements(uint _votingId) public view returns(uint){\r\n        return all_Votings[_votingId].comment_num;\r\n    }\r\n    //获取合约地址的剩余资金\r\n    function getBalance() public view returns (uint) {\r\n        return address(this).balance;\r\n    }\r\n    //make sure the voter is in this voting\r\n    modifier isVoterInVoting(uint _votingId){\r\n        require(_votingId>=0 && _votingId<=all_votings_num);\r\n        Voting storage voting = all_Votings[_votingId];\r\n        bool isIn = false;\r\n        for(uint i = 1; i<=voting.voter_num;i++){\r\n            Voter memory voter = voting.voters[i];\r\n            if(voter.add==msg.sender)\r\n            isIn = true;\r\n        }\r\n        require(isIn == true);\r\n        _;\r\n    }\r\n    \r\n    function MyVotings(uint _votingId) public view returns(uint){\r\n        uint tickets=0;\r\n        Voting storage voting = all_Votings[_votingId];\r\n        for(uint j=1;j<=voting.voter_num;j++){\r\n            Voter memory voter = voting.voters[j];\r\n            if(voter.add==msg.sender)\r\n            tickets+=voter.ticket;\r\n        }\r\n        return tickets;\r\n    }\r\n    \r\n    function MyCreatedVotings(uint _votingId) public view returns(bool){\r\n        return (all_Votings[_votingId].creator_addr == msg.sender ? true:false);\r\n    }\r\n}\r\n",
  "sourcePath": "C:/Users/51472/OneDrive/desktop/blockchain/test4/BlockChainProject/contracts/Voting.sol",
  "compiler": {
    "name": "solc",
    "version": "0.5.16+commit.9c3226ce.Emscripten.clang"
  },
  "schemaVersion": "3.2.3",
  "updatedAt": "2022-05-11T22:49:50.535Z",
  "networkType": "ethereum",
  "devdoc": {
    "methods": {}
  },
  "userdoc": {
    "methods": {}
  }
}