{
  "contractName": "Voting",
  "abi": [
    {
      "constant": true,
      "inputs": [
        {
          "internalType": "uint256",
          "name": "",
          "type": "uint256"
        }
      ],
      "name": "all_Votings",
      "outputs": [
        {
          "internalType": "address payable",
          "name": "creator_addr",
          "type": "address"
        },
        {
          "internalType": "string",
          "name": "title",
          "type": "string"
        },
        {
          "internalType": "string",
          "name": "content",
          "type": "string"
        },
        {
          "internalType": "uint256",
          "name": "target_voting",
          "type": "uint256"
        },
        {
          "internalType": "uint256",
          "name": "num_voted",
          "type": "uint256"
        },
        {
          "internalType": "uint256",
          "name": "endtime",
          "type": "uint256"
        },
        {
          "internalType": "bool",
          "name": "isSuccess",
          "type": "bool"
        },
        {
          "internalType": "uint256",
          "name": "voter_num",
          "type": "uint256"
        },
        {
          "internalType": "uint256",
          "name": "comment_num",
          "type": "uint256"
        }
      ],
      "payable": false,
      "stateMutability": "view",
      "type": "function"
    },
    {
      "constant": true,
      "inputs": [],
      "name": "all_votings_num",
      "outputs": [
        {
          "internalType": "uint256",
          "name": "",
          "type": "uint256"
        }
      ],
      "payable": false,
      "stateMutability": "view",
      "type": "function"
    },
    {
      "constant": false,
      "inputs": [
        {
          "internalType": "uint256",
          "name": "_votingId",
          "type": "uint256"
        }
      ],
      "name": "Vote_sender",
      "outputs": [],
      "payable": true,
      "stateMutability": "payable",
      "type": "function"
    },
    {
      "constant": false,
      "inputs": [
        {
          "internalType": "address payable",
          "name": "_initiator",
          "type": "address"
        },
        {
          "internalType": "string",
          "name": "_title",
          "type": "string"
        },
        {
          "internalType": "string",
          "name": "_content",
          "type": "string"
        },
        {
          "internalType": "uint256",
          "name": "_goalMoney",
          "type": "uint256"
        },
        {
          "internalType": "uint256",
          "name": "_endtime",
          "type": "uint256"
        }
      ],
      "name": "Voting_constructor",
      "outputs": [
        {
          "internalType": "uint256",
          "name": "",
          "type": "uint256"
        }
      ],
      "payable": false,
      "stateMutability": "nonpayable",
      "type": "function"
    },
    {
      "constant": true,
      "inputs": [],
      "name": "getBalance",
      "outputs": [
        {
          "internalType": "uint256",
          "name": "",
          "type": "uint256"
        }
      ],
      "payable": false,
      "stateMutability": "view",
      "type": "function"
    },
    {
      "constant": true,
      "inputs": [
        {
          "internalType": "uint256",
          "name": "_votingId",
          "type": "uint256"
        }
      ],
      "name": "MyVotings",
      "outputs": [
        {
          "internalType": "uint256",
          "name": "",
          "type": "uint256"
        }
      ],
      "payable": false,
      "stateMutability": "view",
      "type": "function"
    },
    {
      "constant": true,
      "inputs": [
        {
          "internalType": "uint256",
          "name": "_votingId",
          "type": "uint256"
        }
      ],
      "name": "MyCreatedVotings",
      "outputs": [
        {
          "internalType": "bool",
          "name": "",
          "type": "bool"
        }
      ],
      "payable": false,
      "stateMutability": "view",
      "type": "function"
    }
  ],
  "bytecode": "0x608060405234801561001057600080fd5b50610af1806100206000396000f3fe6080604052600436106100705760003560e01c806339612ada1161004e57806339612ada1461024c578063a8cea98b146103f3578063aafa2c1514610446578063d5864d161461047457610070565b8063089a0dc614610075578063108e2f88146101f657806312065fe014610221575b600080fd5b34801561008157600080fd5b506100ae6004803603602081101561009857600080fd5b81019080803590602001909291905050506104c3565b604051808a73ffffffffffffffffffffffffffffffffffffffff1673ffffffffffffffffffffffffffffffffffffffff16815260200180602001806020018981526020018881526020018781526020018615151515815260200185815260200184815260200183810383528b818151815260200191508051906020019080838360005b8381101561014c578082015181840152602081019050610131565b50505050905090810190601f1680156101795780820380516001836020036101000a031916815260200191505b5083810382528a818151815260200191508051906020019080838360005b838110156101b2578082015181840152602081019050610197565b50505050905090810190601f1680156101df5780820380516001836020036101000a031916815260200191505b509b50505050505050505050505060405180910390f35b34801561020257600080fd5b5061020b61066e565b6040518082815260200191505060405180910390f35b34801561022d57600080fd5b50610236610674565b6040518082815260200191505060405180910390f35b34801561025857600080fd5b506103dd600480360360a081101561026f57600080fd5b81019080803573ffffffffffffffffffffffffffffffffffffffff169060200190929190803590602001906401000000008111156102ac57600080fd5b8201836020820111156102be57600080fd5b803590602001918460018302840111640100000000831117156102e057600080fd5b91908080601f016020809104026020016040519081016040528093929190818152602001838380828437600081840152601f19601f8201169050808301925050505050505091929192908035906020019064010000000081111561034357600080fd5b82018360208201111561035557600080fd5b8035906020019184600183028401116401000000008311171561037757600080fd5b91908080601f016020809104026020016040519081016040528093929190818152602001838380828437600081840152601f19601f820116905080830192505050505050509192919290803590602001909291908035906020019092919050505061067c565b6040518082815260200191505060405180910390f35b3480156103ff57600080fd5b5061042c6004803603602081101561041657600080fd5b810190808035906020019092919050505061074a565b604051808215151515815260200191505060405180910390f35b6104726004803603602081101561045c57600080fd5b81019080803590602001909291905050506107c8565b005b34801561048057600080fd5b506104ad6004803603602081101561049757600080fd5b81019080803590602001909291905050506108d2565b6040518082815260200191505060405180910390f35b60016020528060005260406000206000915090508060000160009054906101000a900473ffffffffffffffffffffffffffffffffffffffff1690806001018054600181600116156101000203166002900480601f0160208091040260200160405190810160405280929190818152602001828054600181600116156101000203166002900480156105955780601f1061056a57610100808354040283529160200191610595565b820191906000526020600020905b81548152906001019060200180831161057857829003601f168201915b505050505090806002018054600181600116156101000203166002900480601f0160208091040260200160405190810160405280929190818152602001828054600181600116156101000203166002900480156106335780601f1061060857610100808354040283529160200191610633565b820191906000526020600020905b81548152906001019060200180831161061657829003601f168201915b5050505050908060030154908060040154908060050154908060060160009054906101000a900460ff16908060070154908060080154905089565b60005481565b600047905090565b6000806000549050600160008082825401925050819055506000600160008381526020019081526020016000209050878160000160006101000a81548173ffffffffffffffffffffffffffffffffffffffff021916908373ffffffffffffffffffffffffffffffffffffffff160217905550868160010190805190602001906107069291906109e7565b508581600201908051906020019061071f9291906109e7565b5084816003018190555060008160040181905550838160050181905550819250505095945050505050565b600080600190503373ffffffffffffffffffffffffffffffffffffffff166001600085815260200190815260200160002060000160009054906101000a900473ffffffffffffffffffffffffffffffffffffffff1673ffffffffffffffffffffffffffffffffffffffff16146107bf57600090505b80915050919050565b600034116107d557600080fd5b60016000828152602001908152602001600020600501544211156107f857600080fd5b60006001600083815260200190815260200160002090506000600182600701540190506001826007015401826007018190555060008260090160008381526020019081526020016000209050338160000160006101000a81548173ffffffffffffffffffffffffffffffffffffffff021916908373ffffffffffffffffffffffffffffffffffffffff16021790555034816001018190555034836004015401836004018190555082600301548360040154106108cc5760018360060160006101000a81548160ff0219169083151502179055505b50505050565b6000806000905060006001600085815260200190815260200160002090506000600190505b816007015481116109dc5761090a610a67565b8260090160008381526020019081526020016000206040518060400160405290816000820160009054906101000a900473ffffffffffffffffffffffffffffffffffffffff1673ffffffffffffffffffffffffffffffffffffffff1673ffffffffffffffffffffffffffffffffffffffff16815260200160018201548152505090503373ffffffffffffffffffffffffffffffffffffffff16816000015173ffffffffffffffffffffffffffffffffffffffff1614156109ce578060200151840193505b5080806001019150506108f7565b508192505050919050565b828054600181600116156101000203166002900490600052602060002090601f016020900481019282601f10610a2857805160ff1916838001178555610a56565b82800160010185558215610a56579182015b82811115610a55578251825591602001919060010190610a3a565b5b509050610a639190610a97565b5090565b6040518060400160405280600073ffffffffffffffffffffffffffffffffffffffff168152602001600081525090565b610ab991905b80821115610ab5576000816000905550600101610a9d565b5090565b9056fea265627a7a7231582078b0d1205fcff2cd4431218e5235273561d1b08958d7c6a2291e65ff7df3f36464736f6c63430005100032",
  "source": "// SPDX-License-Identifier: MIT\r\npragma solidity >=0.4.0;\r\n\r\ncontract Voting{\r\n    struct Voting{\r\n        address payable creator_addr;\r\n        string title;\r\n        string content;\r\n        uint target_voting;\r\n        uint num_voted;\r\n        uint endtime;\r\n        bool isSuccess;\r\n        uint voter_num;\r\n        uint comment_num;\r\n        mapping(uint => Voter) voters;\r\n    }\r\n\r\n\r\n    struct Voter{\r\n        address payable add;\r\n        uint ticket;\r\n    }\r\n\r\n    uint public all_votings_num;\r\n    mapping(uint => Voting) public all_Votings;\r\n\r\n    function Vote_sender(uint _votingId) public payable {\r\n        require(msg.value>0);\r\n        require(block.timestamp<=all_Votings[_votingId].endtime);\r\n        Voting storage voting = all_Votings[_votingId];\r\n        uint voternum = voting.voter_num + 1;\r\n        voting.voter_num = voting.voter_num + 1;\r\n        Voter storage voter = voting.voters[voternum];\r\n        voter.add = msg.sender;\r\n        voter.ticket = msg.value;\r\n        voting.num_voted = voting.num_voted + msg.value;\r\n        if(voting.num_voted >= voting.target_voting)voting.isSuccess=true;\r\n    }\r\n\r\n    function Voting_constructor(address payable _initiator, string memory _title, string memory _content, uint _goalMoney, uint _endtime) public returns(uint) {\r\n        uint num = all_votings_num;\r\n        all_votings_num+=1;\r\n        Voting storage voting = all_Votings[num];\r\n        voting.creator_addr = _initiator;\r\n        voting.title = _title;\r\n        voting.content = _content;\r\n        voting.target_voting = _goalMoney;\r\n        voting.num_voted = 0;\r\n        voting.endtime = _endtime;\r\n        return num;\r\n    }\r\n\r\n    function getBalance() public view returns (uint) {\r\n        return address(this).balance;\r\n    }\r\n\r\n    function MyVotings(uint _votingId) public view returns(uint){\r\n        uint tickets=0;\r\n        Voting storage voting = all_Votings[_votingId];\r\n        for(uint j=1;j<=voting.voter_num;j++){\r\n            Voter memory voter = voting.voters[j];\r\n            if(voter.add==msg.sender)\r\n            tickets+=voter.ticket;\r\n        }\r\n        return tickets;\r\n    }\r\n    \r\n    function MyCreatedVotings(uint _votingId) public view returns(bool){\r\n        bool check = true;\r\n        if(all_Votings[_votingId].creator_addr != msg.sender){\r\n            check = false;\r\n        }\r\n        return check;\r\n    }\r\n}",
  "sourcePath": "C:/Users/51472/OneDrive/desktop/blockchain/test4/BlockChainProject/contracts/Voting.sol",
  "compiler": {
    "name": "solc",
    "version": "0.5.16+commit.9c3226ce.Emscripten.clang"
  },
  "schemaVersion": "3.2.3",
  "updatedAt": "2022-05-13T21:45:13.762Z",
  "devdoc": {
    "methods": {}
  },
  "userdoc": {
    "methods": {}
  }
}